{
  "_format": "hh-sol-artifact-1",
  "contractName": "Oracle",
  "sourceName": "contracts/Oracle.sol",
  "abi": [
    {
      "inputs": [
        {
          "internalType": "address[]",
          "name": "_authorizedNodes",
          "type": "address[]"
        },
        {
          "internalType": "address[]",
          "name": "_authorizedRequesters",
          "type": "address[]"
        }
      ],
      "stateMutability": "nonpayable",
      "type": "constructor"
    },
    {
      "inputs": [
        {
          "internalType": "address",
          "name": "owner",
          "type": "address"
        }
      ],
      "name": "OwnableInvalidOwner",
      "type": "error"
    },
    {
      "inputs": [
        {
          "internalType": "address",
          "name": "account",
          "type": "address"
        }
      ],
      "name": "OwnableUnauthorizedAccount",
      "type": "error"
    },
    {
      "anonymous": false,
      "inputs": [
        {
          "indexed": true,
          "internalType": "address",
          "name": "node",
          "type": "address"
        }
      ],
      "name": "NodeAuthorized",
      "type": "event"
    },
    {
      "anonymous": false,
      "inputs": [
        {
          "indexed": true,
          "internalType": "address",
          "name": "node",
          "type": "address"
        }
      ],
      "name": "NodeDeauthorized",
      "type": "event"
    },
    {
      "anonymous": false,
      "inputs": [
        {
          "indexed": true,
          "internalType": "bytes32",
          "name": "id",
          "type": "bytes32"
        },
        {
          "indexed": true,
          "internalType": "bytes32",
          "name": "requestId",
          "type": "bytes32"
        },
        {
          "indexed": false,
          "internalType": "bytes",
          "name": "data",
          "type": "bytes"
        }
      ],
      "name": "OracleFulfillment",
      "type": "event"
    },
    {
      "anonymous": false,
      "inputs": [
        {
          "indexed": true,
          "internalType": "bytes32",
          "name": "id",
          "type": "bytes32"
        },
        {
          "indexed": true,
          "internalType": "bytes32",
          "name": "jobId",
          "type": "bytes32"
        },
        {
          "indexed": false,
          "internalType": "bytes",
          "name": "args",
          "type": "bytes"
        },
        {
          "indexed": false,
          "internalType": "address",
          "name": "requester",
          "type": "address"
        }
      ],
      "name": "OracleRequest",
      "type": "event"
    },
    {
      "anonymous": false,
      "inputs": [
        {
          "indexed": true,
          "internalType": "address",
          "name": "previousOwner",
          "type": "address"
        },
        {
          "indexed": true,
          "internalType": "address",
          "name": "newOwner",
          "type": "address"
        }
      ],
      "name": "OwnershipTransferred",
      "type": "event"
    },
    {
      "anonymous": false,
      "inputs": [
        {
          "indexed": true,
          "internalType": "address",
          "name": "requester",
          "type": "address"
        }
      ],
      "name": "RequesterAuthorized",
      "type": "event"
    },
    {
      "anonymous": false,
      "inputs": [
        {
          "indexed": true,
          "internalType": "address",
          "name": "requester",
          "type": "address"
        }
      ],
      "name": "RequesterDeauthorized",
      "type": "event"
    },
    {
      "inputs": [
        {
          "internalType": "address",
          "name": "_address",
          "type": "address"
        }
      ],
      "name": "authorizeNode",
      "outputs": [],
      "stateMutability": "nonpayable",
      "type": "function"
    },
    {
      "inputs": [
        {
          "internalType": "address",
          "name": "_address",
          "type": "address"
        }
      ],
      "name": "authorizeRequester",
      "outputs": [],
      "stateMutability": "nonpayable",
      "type": "function"
    },
    {
      "inputs": [
        {
          "internalType": "address",
          "name": "",
          "type": "address"
        }
      ],
      "name": "authorizedNodes",
      "outputs": [
        {
          "internalType": "bool",
          "name": "",
          "type": "bool"
        }
      ],
      "stateMutability": "view",
      "type": "function"
    },
    {
      "inputs": [
        {
          "internalType": "address",
          "name": "",
          "type": "address"
        }
      ],
      "name": "authorizedRequesters",
      "outputs": [
        {
          "internalType": "bool",
          "name": "",
          "type": "bool"
        }
      ],
      "stateMutability": "view",
      "type": "function"
    },
    {
      "inputs": [
        {
          "internalType": "address",
          "name": "_address",
          "type": "address"
        }
      ],
      "name": "deauthorizeNode",
      "outputs": [],
      "stateMutability": "nonpayable",
      "type": "function"
    },
    {
      "inputs": [
        {
          "internalType": "address",
          "name": "_address",
          "type": "address"
        }
      ],
      "name": "deauthorizeRequester",
      "outputs": [],
      "stateMutability": "nonpayable",
      "type": "function"
    },
    {
      "inputs": [
        {
          "internalType": "bytes32",
          "name": "_requestId",
          "type": "bytes32"
        },
        {
          "internalType": "bytes",
          "name": "_data",
          "type": "bytes"
        }
      ],
      "name": "fulfillOracleRequest",
      "outputs": [],
      "stateMutability": "nonpayable",
      "type": "function"
    },
    {
      "inputs": [
        {
          "internalType": "bytes32",
          "name": "_jobId",
          "type": "bytes32"
        },
        {
          "internalType": "bytes",
          "name": "_args",
          "type": "bytes"
        }
      ],
      "name": "makeOracleRequest",
      "outputs": [
        {
          "internalType": "bytes32",
          "name": "",
          "type": "bytes32"
        }
      ],
      "stateMutability": "nonpayable",
      "type": "function"
    },
    {
      "inputs": [],
      "name": "owner",
      "outputs": [
        {
          "internalType": "address",
          "name": "",
          "type": "address"
        }
      ],
      "stateMutability": "view",
      "type": "function"
    },
    {
      "inputs": [],
      "name": "renounceOwnership",
      "outputs": [],
      "stateMutability": "nonpayable",
      "type": "function"
    },
    {
      "inputs": [
        {
          "internalType": "bytes32",
          "name": "",
          "type": "bytes32"
        }
      ],
      "name": "requests",
      "outputs": [
        {
          "internalType": "bytes32",
          "name": "jobId",
          "type": "bytes32"
        },
        {
          "internalType": "address",
          "name": "requester",
          "type": "address"
        },
        {
          "internalType": "bool",
          "name": "pending",
          "type": "bool"
        }
      ],
      "stateMutability": "view",
      "type": "function"
    },
    {
      "inputs": [
        {
          "internalType": "address",
          "name": "newOwner",
          "type": "address"
        }
      ],
      "name": "transferOwnership",
      "outputs": [],
      "stateMutability": "nonpayable",
      "type": "function"
    }
  ],
  "bytecode": "0x60806040523480156200001157600080fd5b50604051620017113803806200171183398181016040528101906200003791906200049b565b33600073ffffffffffffffffffffffffffffffffffffffff168173ffffffffffffffffffffffffffffffffffffffff1603620000ad5760006040517f1e4fbdf7000000000000000000000000000000000000000000000000000000008152600401620000a4919062000531565b60405180910390fd5b620000be81620001e960201b60201c565b5060005b82518110156200014f57600160026000858481518110620000e857620000e76200054e565b5b602002602001015173ffffffffffffffffffffffffffffffffffffffff1673ffffffffffffffffffffffffffffffffffffffff16815260200190815260200160002060006101000a81548160ff0219169083151502179055508080600101915050620000c2565b5060005b8151811015620001e0576001600360008484815181106200017957620001786200054e565b5b602002602001015173ffffffffffffffffffffffffffffffffffffffff1673ffffffffffffffffffffffffffffffffffffffff16815260200190815260200160002060006101000a81548160ff021916908315150217905550808060010191505062000153565b5050506200057d565b60008060009054906101000a900473ffffffffffffffffffffffffffffffffffffffff169050816000806101000a81548173ffffffffffffffffffffffffffffffffffffffff021916908373ffffffffffffffffffffffffffffffffffffffff1602179055508173ffffffffffffffffffffffffffffffffffffffff168173ffffffffffffffffffffffffffffffffffffffff167f8be0079c531659141344cd1fd0a4f28419497f9722a3daafe3b4186f6b6457e060405160405180910390a35050565b6000604051905090565b600080fd5b600080fd5b600080fd5b6000601f19601f8301169050919050565b7f4e487b7100000000000000000000000000000000000000000000000000000000600052604160045260246000fd5b6200031182620002c6565b810181811067ffffffffffffffff82111715620003335762000332620002d7565b5b80604052505050565b600062000348620002ad565b905062000356828262000306565b919050565b600067ffffffffffffffff821115620003795762000378620002d7565b5b602082029050602081019050919050565b600080fd5b600073ffffffffffffffffffffffffffffffffffffffff82169050919050565b6000620003bc826200038f565b9050919050565b620003ce81620003af565b8114620003da57600080fd5b50565b600081519050620003ee81620003c3565b92915050565b60006200040b62000405846200035b565b6200033c565b905080838252602082019050602084028301858111156200043157620004306200038a565b5b835b818110156200045e5780620004498882620003dd565b84526020840193505060208101905062000433565b5050509392505050565b600082601f83011262000480576200047f620002c1565b5b815162000492848260208601620003f4565b91505092915050565b60008060408385031215620004b557620004b4620002b7565b5b600083015167ffffffffffffffff811115620004d657620004d5620002bc565b5b620004e48582860162000468565b925050602083015167ffffffffffffffff811115620005085762000507620002bc565b5b620005168582860162000468565b9150509250929050565b6200052b81620003af565b82525050565b600060208201905062000548600083018462000520565b92915050565b7f4e487b7100000000000000000000000000000000000000000000000000000000600052603260045260246000fd5b611184806200058d6000396000f3fe608060405234801561001057600080fd5b50600436106100b45760003560e01c80638da5cb5b116100715780638da5cb5b1461018b5780639d866985146101a9578063ab15a7bf146101db578063acc72bc6146101f7578063bb2598b114610213578063f2fde38b1461022f576100b4565b80632031287f146100b95780633ea478aa146100e957806347538f9214610119578063715018a6146101355780637e53a7401461013f5780638a49b6461461016f575b600080fd5b6100d360048036038101906100ce9190610c53565b61024b565b6040516100e09190610cc2565b60405180910390f35b61010360048036038101906100fe9190610d3b565b61040b565b6040516101109190610d83565b60405180910390f35b610133600480360381019061012e9190610c53565b61042b565b005b61013d610689565b005b61015960048036038101906101549190610d3b565b61069d565b6040516101669190610d83565b60405180910390f35b61018960048036038101906101849190610d3b565b6106bd565b005b610193610763565b6040516101a09190610dad565b60405180910390f35b6101c360048036038101906101be9190610dc8565b61078c565b6040516101d293929190610df5565b60405180910390f35b6101f560048036038101906101f09190610d3b565b6107e3565b005b610211600480360381019061020c9190610d3b565b610889565b005b61022d60048036038101906102289190610d3b565b61092f565b005b61024960048036038101906102449190610d3b565b6109d5565b005b6000600360003373ffffffffffffffffffffffffffffffffffffffff1673ffffffffffffffffffffffffffffffffffffffff16815260200190815260200160002060009054906101000a900460ff166102d9576040517f08c379a00000000000000000000000000000000000000000000000000000000081526004016102d090610e89565b60405180910390fd5b60008484846040516020016102f093929190610f09565b60405160208183030381529060405280519060200120905060405180606001604052808681526020013373ffffffffffffffffffffffffffffffffffffffff16815260200160011515815250600160008381526020019081526020016000206000820151816000015560208201518160010160006101000a81548173ffffffffffffffffffffffffffffffffffffffff021916908373ffffffffffffffffffffffffffffffffffffffff16021790555060408201518160010160146101000a81548160ff02191690831515021790555090505084817fc6be46da2bd546b55433fd2e85d36aefce6c5a9dcfe7a2afa558d96b3094cafc8686336040516103f893929190610f82565b60405180910390a3809150509392505050565b60036020528060005260406000206000915054906101000a900460ff1681565b600260003373ffffffffffffffffffffffffffffffffffffffff1673ffffffffffffffffffffffffffffffffffffffff16815260200190815260200160002060009054906101000a900460ff166104b7576040517f08c379a00000000000000000000000000000000000000000000000000000000081526004016104ae90611000565b60405180910390fd5b6000801b600160008581526020019081526020016000206000015403610512576040517f08c379a00000000000000000000000000000000000000000000000000000000081526004016105099061106c565b60405180910390fd5b6001600084815260200190815260200160002060010160149054906101000a900460ff16610575576040517f08c379a000000000000000000000000000000000000000000000000000000000815260040161056c906110d8565b60405180910390fd5b60006001600085815260200190815260200160002060010160146101000a81548160ff0219169083151502179055506001600084815260200190815260200160002060010160009054906101000a900473ffffffffffffffffffffffffffffffffffffffff1673ffffffffffffffffffffffffffffffffffffffff166347538f928484846040518463ffffffff1660e01b8152600401610617939291906110f8565b600060405180830381600087803b15801561063157600080fd5b505af1158015610645573d6000803e3d6000fd5b5050505082837fb2d2d8a01cb563cb053f7367a738a1cdd6b1a82182c0dcf6aa4e6c10a0366ab3848460405161067c92919061112a565b60405180910390a3505050565b610691610a5b565b61069b6000610ae2565b565b60026020528060005260406000206000915054906101000a900460ff1681565b6106c5610a5b565b6000600360008373ffffffffffffffffffffffffffffffffffffffff1673ffffffffffffffffffffffffffffffffffffffff16815260200190815260200160002060006101000a81548160ff0219169083151502179055508073ffffffffffffffffffffffffffffffffffffffff167f044bde5b10fe2f3bd78e6f71dfe923dd16c208d4561b5c078cd73b4cb9f5a87960405160405180910390a250565b60008060009054906101000a900473ffffffffffffffffffffffffffffffffffffffff16905090565b60016020528060005260406000206000915090508060000154908060010160009054906101000a900473ffffffffffffffffffffffffffffffffffffffff16908060010160149054906101000a900460ff16905083565b6107eb610a5b565b6000600260008373ffffffffffffffffffffffffffffffffffffffff1673ffffffffffffffffffffffffffffffffffffffff16815260200190815260200160002060006101000a81548160ff0219169083151502179055508073ffffffffffffffffffffffffffffffffffffffff167f089a70336a39a34617fbc45fe7b3dda5daf714a8ce7c29a0d7c387b7bbd3963a60405160405180910390a250565b610891610a5b565b6001600260008373ffffffffffffffffffffffffffffffffffffffff1673ffffffffffffffffffffffffffffffffffffffff16815260200190815260200160002060006101000a81548160ff0219169083151502179055508073ffffffffffffffffffffffffffffffffffffffff167f8638f01ed0471fe5cd807bb572bf42f715a4a2064a2c643b9d78bad2b95ec86f60405160405180910390a250565b610937610a5b565b6001600360008373ffffffffffffffffffffffffffffffffffffffff1673ffffffffffffffffffffffffffffffffffffffff16815260200190815260200160002060006101000a81548160ff0219169083151502179055508073ffffffffffffffffffffffffffffffffffffffff167f791e573435df04903d7401026414f93af8d51e6ba54036e826be5e760b9362b160405160405180910390a250565b6109dd610a5b565b600073ffffffffffffffffffffffffffffffffffffffff168173ffffffffffffffffffffffffffffffffffffffff1603610a4f5760006040517f1e4fbdf7000000000000000000000000000000000000000000000000000000008152600401610a469190610dad565b60405180910390fd5b610a5881610ae2565b50565b610a63610ba6565b73ffffffffffffffffffffffffffffffffffffffff16610a81610763565b73ffffffffffffffffffffffffffffffffffffffff1614610ae057610aa4610ba6565b6040517f118cdaa7000000000000000000000000000000000000000000000000000000008152600401610ad79190610dad565b60405180910390fd5b565b60008060009054906101000a900473ffffffffffffffffffffffffffffffffffffffff169050816000806101000a81548173ffffffffffffffffffffffffffffffffffffffff021916908373ffffffffffffffffffffffffffffffffffffffff1602179055508173ffffffffffffffffffffffffffffffffffffffff168173ffffffffffffffffffffffffffffffffffffffff167f8be0079c531659141344cd1fd0a4f28419497f9722a3daafe3b4186f6b6457e060405160405180910390a35050565b600033905090565b600080fd5b600080fd5b6000819050919050565b610bcb81610bb8565b8114610bd657600080fd5b50565b600081359050610be881610bc2565b92915050565b600080fd5b600080fd5b600080fd5b60008083601f840112610c1357610c12610bee565b5b8235905067ffffffffffffffff811115610c3057610c2f610bf3565b5b602083019150836001820283011115610c4c57610c4b610bf8565b5b9250929050565b600080600060408486031215610c6c57610c6b610bae565b5b6000610c7a86828701610bd9565b935050602084013567ffffffffffffffff811115610c9b57610c9a610bb3565b5b610ca786828701610bfd565b92509250509250925092565b610cbc81610bb8565b82525050565b6000602082019050610cd76000830184610cb3565b92915050565b600073ffffffffffffffffffffffffffffffffffffffff82169050919050565b6000610d0882610cdd565b9050919050565b610d1881610cfd565b8114610d2357600080fd5b50565b600081359050610d3581610d0f565b92915050565b600060208284031215610d5157610d50610bae565b5b6000610d5f84828501610d26565b91505092915050565b60008115159050919050565b610d7d81610d68565b82525050565b6000602082019050610d986000830184610d74565b92915050565b610da781610cfd565b82525050565b6000602082019050610dc26000830184610d9e565b92915050565b600060208284031215610dde57610ddd610bae565b5b6000610dec84828501610bd9565b91505092915050565b6000606082019050610e0a6000830186610cb3565b610e176020830185610d9e565b610e246040830184610d74565b949350505050565b600082825260208201905092915050565b7f4e6f7420617574686f72697a656420746f207265717565737400000000000000600082015250565b6000610e73601983610e2c565b9150610e7e82610e3d565b602082019050919050565b60006020820190508181036000830152610ea281610e66565b9050919050565b6000819050919050565b610ec4610ebf82610bb8565b610ea9565b82525050565b600081905092915050565b82818337600083830152505050565b6000610ef08385610eca565b9350610efd838584610ed5565b82840190509392505050565b6000610f158286610eb3565b602082019150610f26828486610ee4565b9150819050949350505050565b600082825260208201905092915050565b6000601f19601f8301169050919050565b6000610f618385610f33565b9350610f6e838584610ed5565b610f7783610f44565b840190509392505050565b60006040820190508181036000830152610f9d818587610f55565b9050610fac6020830184610d9e565b949350505050565b7f4e6f7420617574686f72697a656420746f2066756c66696c6c00000000000000600082015250565b6000610fea601983610e2c565b9150610ff582610fb4565b602082019050919050565b6000602082019050818103600083015261101981610fdd565b9050919050565b7f52657175657374206e6f7420666f756e64000000000000000000000000000000600082015250565b6000611056601183610e2c565b915061106182611020565b602082019050919050565b6000602082019050818103600083015261108581611049565b9050919050565b7f5265717565737420616c72656164792066756c66696c6c656400000000000000600082015250565b60006110c2601983610e2c565b91506110cd8261108c565b602082019050919050565b600060208201905081810360008301526110f1816110b5565b9050919050565b600060408201905061110d6000830186610cb3565b8181036020830152611120818486610f55565b9050949350505050565b60006020820190508181036000830152611145818486610f55565b9050939250505056fea2646970667358221220284fc05fff42df1a6b08f7efcacea2a56b5418ba2b7726a2c45d7f900623044c64736f6c63430008180033",
  "linkReferences": {},
  "deployedLinkReferences": {}
}